:020000040800F2
:10000000480B0020550200084165000875500008A3
:1000100000000000000000000000000000000000E0
:10002000000000000000000000000000AD6C0008AF
:10003000000000000000000065690008E575000888
:10004000670200080000000067020008670200085D
:1000500067020008670200086702000867020008DC
:10006000000000006702000867020008670200083D
:10007000670200086702000867020008000000002D
:10008000670200086702000800000000670200081D
:10009000670200086702000867020008670200089C
:1000A0006702000867020008670200088F830008E3
:1000B0009984000800F002F800F0BDF80CA030C8E8
:1000C000083824182D18A246671EAB4654465D46D4
:1000D000AC4201D100F0AFF87E460F3E0FCCB646E1
:1000E0000126334200D0FB1AA246AB4633431847E1
:1000F0000C9300002C930000103A02D378C878C10A
:10010000FAD8520701D330C830C101D504680C6059
:10011000704700000023002400250026103A01D378
:1001200078C1FBD8520700D330C100D50B607047AF
:1001300010B56E2902D100F049FB10BD702902D123
:1001400000F083FC10BD662902D108F0D9FD10BD76
:10015000652902D108F0D4FD10BD672902D108F04D
:10016000CFFD10BD612902D108F0D2FD10BD03689A
:100170001B0A01D380231943692902D100F0F0FA48
:1001800010BD642902D100F0EBFA10BD752902D12F
:1001900000F0E6FA10BD6F2902D100F001FC10BD9D
:1001A000782902D100F03EFC10BDE92902D100F00F
:1001B0009DFB10BDE42902D100F098FB10BDF5298C
:1001C00002D100F093FB10BDEF2902D100F0F4FB47
:1001D00010BDF82902D100F033FC10BD0368DB0923
:1001E00001D380231943632902D101F058F910BDCE
:1001F000732902D101F05BF910BDE32902D101F0AE
:1002000065F910BDF32902D101F068F910BD002095
:1002100010BD1FB500F026FD04000020002108F0ED
:1002200043FD401C60600020002108F053FDE060A9
:100230001FBD10B510BD01F0DCF91146FFF7E9FF55
:1002400008F07AFC01F074FD03B4FFF7F2FF03BC81
:1002500001F076FD0748804707480047FEE7FEE7C4
:10026000FEE7FEE7FEE7FEE704480549054A064BC0
:10027000704700006B760008B500000848050020B4
:10028000480B0020480700204807002010B5202A0E
:1002900004DB0846203AD040002110BD0B46202444
:1002A000D340D040A21A91400843194610BDFEB574
:1002B000054610460C46184373D0AE468C460020C7
:1002C000AD1A01469C4167D36646002701243D468E
:1002D000B61A9D4102D313463A4621246546764616
:1002E0002F04360C3E432D0CB61A9D4104D3150C39
:1002F0001B042B4312041034654676462F06360A3B
:100300003E432D0AB61A9D4104D3150E1B022B4302
:1003100012020834654676462F0736093E432D09FA
:10032000B61A9D4104D3150F1B012B431201241D46
:1003300065467646AF07B6083E43AD08B61A9D41FE
:1003400004D3950F9B002B439200A41C6546764670
:10035000EF0776083E436D08B61A9D411AD39218EE
:100360005B41641C16E00018764665464941B71AA1
:100370009D410191009009D36046B11A98418E4683
:100380008446009801990025401C6941DD07520808
:100390002A435B08641EE6D57246634603B0F0BD8F
:1003A000FFE700200146C046C0462A462346F5E73F
:1003B00010B5044600F066F90068005D000704D53A
:1003C000DF2C02D02046203810BD204610BD000092
:1003D0001CB50C46064B7B4469460090204600F055
:1003E0000EFA04460020694600F01CFA20461CBDA7
:1003F0004B04000070B5064600F04CF90468054651
:1004000030460A22002100F0F1FB2C6070BD000094
:10041000034670B502460B439B070FD10E4CE60115
:1004200000E008C208C91D1B9D433542F9D0D9B26E
:100430001170521C00290DD01B0AF8E70B78491CDB
:100440001370521C002B05D00B78491C1370521CE2
:10045000002BF3D170BD00000101010101E004C0D7
:10046000091F0429FBD28B0701D50280801CC90714
:1004700000D00270704700290BD0C30702D0027071
:10048000401C491E022904D3830702D50280801C28
:10049000891EE3E70022EEE70022DFE7024670B59F
:1004A0000A4392072AD11E4DEE0104C808C9541B05
:1004B0009443344017D0D0B2D9B2401A2106014338
:1004C00010D190B299B2401A210401430AD110020E
:1004D0001902000A090A401A2102014302D1100E32
:1004E000190E401A70BD9A42DFD010BA19BA88426C
:1004F00001D9012070BD0020C04370BD02780B7887
:10050000401C491C002A09D09A4207D102780B7876
:10051000401C491C002A01D09A42EFD0D01A70BD6D
:1005200001010101002203098B422CD3030A8B42F3
:1005300011D300239C464EE003460B433CD40022DB
:1005400043088B4231D303098B421CD3030A8B42ED
:1005500001D394463FE0C3098B4201D3CB01C01ABB
:10056000524183098B4201D38B01C01A5241430986
:100570008B4201D34B01C01A524103098B4201D374
:100580000B01C01A5241C3088B4201D3CB00C01AE1
:10059000524183088B4201D38B00C01A5241430859
:1005A0008B4201D34B00C01A5241411A00D201467E
:1005B0005241104670475DE0CA0F00D04942031017
:1005C00000D34042534000229C4603098B422DD366
:1005D000030A8B4212D3FC22890112BA030A8B420E
:1005E0000CD3890192118B4208D3890192118B425D
:1005F00004D389013AD0921100E08909C3098B42E2
:1006000001D3CB01C01A524183098B4201D38B0124
:10061000C01A524143098B4201D34B01C01A5241C7
:1006200003098B4201D30B01C01A5241C3088B420C
:1006300001D3CB00C01A524183088B4201D38B00F7
:10064000C01A5241D9D243088B4201D34B00C01A81
:100650005241411A00D20146634652415B10104696
:1006600001D34042002B00D54942704763465B10DE
:1006700000D3404201B50020C046C04602BD7047CD
:100680007047704710B500F0EDFA001D10BD00BFB7
:100690001986000000487047E804002070B5044641
:1006A00085690068C10601D5302600E02026C00714
:1006B00007D070BD62683046A1689047206A401C30
:1006C00020626D1EF6D570BD70B504468569007850
:1006D000C00707D170BD6268A16820209047206ADA
:1006E000401C20626D1EF6D570BD09684A0501D513
:1006F00040B27047C905FCD500B2704709684A0589
:1007000001D5C0B27047C905FCD580B2704770B53D
:100710000C460546012A05D02878800600D5EA69EE
:10072000002302E0012305E05B1C934202D2E05C5F
:100730000028F9D1A869E618C01AA861286AC0186B
:1007400028622846FFF7AAFF04E06A682078A968B3
:10075000641C9047B442F8D32846FFF7B5FF70BD3C
:10076000F7B5002575291068009914A611D0FFF778
:10077000BCFF002802DA404211A608E0009909688F
:100780008A0701D50FA602E0490704D50EA6012568
:1007900001E0FFF7B3FF009F0024243704E000F0DE
:1007A00014FF30313955641C0028F8D12B463246ED
:1007B0002146009800F097FAFEBD000000000000FE
:1007C0002D0000002B0000002000000011680268CE
:1007D000006A530501D5087009E0D30501D50880EA
:1007E00005E0130602D5C21705C100E0086001202C
:1007F0007047000001694A1C02610878704700B523
:100800008FB002910021059105490193794403912C
:1008100011460490684600F025F90FB000BD0000B5
:10082000E5FFFFFF0A681070521C0A607047000065
:10083000F7B50446154686B02B487844002703C810
:100840003E460090019111E007986A467100415AB6
:1008500002A800F09AFE411C07D02178890603D532
:10086000E269391891420ED83F18761C207880062C
:1008700002D5E069B84206DDAE42E5DB07987100BB
:10088000405A0028E0D1A069C01BA0612046FFF7B4
:1008900005FF154878445A3803C80090002001919C
:1008A00016E041006A460798415A02A800F06DFE22
:1008B0000590401C0AD0002505E0626802A8A168E6
:1008C000405D90476D1C05988542F6D30498401C06
:1008D000B0420490E5DB206AC01920622046FFF791
:1008E000F3FE09B0F0BD0000C28A0000F7B5D21DCA
:1008F0000025D20815A6D200F52905CA11D0002A74
:1009000005DA00214042914111A60A4608E000990B
:1009100009688B0701D50FA602E0490701D50EA68D
:1009200001251146009F0024243704E000F09EF9C1
:1009300030323A55641C02460A43F7D12B46324600
:100940002146009800F0CFF9FEBD00000000000035
:100950002D0000002B0000002000000070B50446B0
:100960000021243408E05507D2086D0F3035655456
:100970005D072A43DB08491C15461D43F3D1046873
:10098000002310A2250708D5A40601D4002904D00D
:10099000C46901230CA2641EC46100F0A4F970BDF7
:1009A00010B5044621461068FFF7A8FE0023024652
:1009B0002046FFF7D3FF10BDD21DD108C9000CC9D6
:1009C000CCE700000000000030000000F8B50F4642
:1009D0000188090502D5224C7C4402E0204C7C446D
:1009E0000E3405460021243508E016071209360F9B
:1009F000A65D6E541E0732431B09491C16461E4352
:100A0000F3D1224604780023240705D5702F06D0A1
:100A1000002901D00223113200F065F9F8BD01234D
:100A20001032F9E770B504460D4621461068FFF70D
:100A300065FE0023024629462046FFF7C7FF70BD2A
:100A4000D21DD308DB000CCBC0E730B403682024F0
:100A50001268234303600823C36130BC0023B5E759
:100A60002C890000F3B50446002081B020622046A6
:100A7000E1688847002872D0252802D06268A16802
:100A8000ABE0594F00267F442046E1688847202884
:100A9000054608DB312D06D2781920380078002869
:100AA00001D00643F0E7B00701D5042086430020BB
:100AB000E0610746A0612A2D0AD0284607F038FFDA
:100AC000002827D0B8000019303D0090856119E05A
:100AD0000298BA00121902C8916102902046E1689A
:100AE0008847012F054617D1E06900281FDA20202A
:100AF00086431CE000980A21806948430099401908
:100B0000303888612046E1688847054607F010FFC5
:100B10000028EFD1012F0AD02E2D08D12046E16800
:100B200088470546202006437F1C022FC3DBA069AF
:100B3000002803DA4042A06101200643F00701D0FB
:100B4000102086436C2D0BD0682D09D04C2D3CD045
:100B50006A2D38D0742D38D07A2D36D016E040E08A
:100B6000E1682F4620468847B842054609D16C2FD8
:100B700029D001208002E1680643204688470546C7
:100B800004E06C2F1DD0FF2001300643002D28D03B
:100B900028464138192803D80120C00206432035D1
:100BA000204626602946029A1646FFF7C1FA002819
:100BB00010D001280BD0F61DF008C00008300290BC
:100BC00055E74020E1E78020D5E70020D3E7361D38
:100BD00002964CE762682846A1689047206A401C4C
:100BE00044E7206AFEBD0000A6880000F7B50F4666
:100BF0000026009C2578641C002D05D0FFF742FDDF
:100C00000068405DC007F5D12B2D02D02D2D18D0E6
:100C1000641E3946029A204600F064FC002F04D07E
:100C20003968A14201D10099396071050224002977
:100C30000BDA4042002803DDFFF72CFD0460A0071B
:100C4000FEBD012080020643E3E70028F8DAFFF743
:100C500021FD04600048FEBDFFFFFF7F0048704794
:100C6000E804002000487047080500200B4670B5D6
:100C7000024689078008084319469D08141AA941AD
:100C800025090807054308092C194841250A0106CA
:100C90000D43010A2C194141200C0D0428430D0C71
:100CA00000194D41002140194D41C0086907084312
:100CB000E908840F8D002543840024184D41241930
:100CC0006D41121BAB4107E00925ED432C11521970
:100CD00063410024401C61411C460A250026551B27
:100CE000B441F1D270BDFFB504460D4681B0243049
:100CF00000902168880604D51022E06991432160A4
:100D000000E00120A84201DD471B00E00027049815
:100D1000A1697A191018081AA0612078C00602D4B7
:100D20002046FFF7BBFC002608E003986268A16834
:100D3000805D9047206A401C761C206204988642A1
:100D4000F3DB2078C0060AD52046FFF7A7FC06E0B3
:100D50006268A16830209047206A401C20623846B3
:100D60007F1E0028F4DC07E000986268A168405DFF
:100D70009047206A401C206228466D1E0028F3DC44
:100D80002046FFF7A1FC2078000602D5022005B01E
:100D9000F0BD0120FBE700007047FFB50C461E4682
:100DA0008FB003CA089009914F007D0D00D16D1ED0
:100DB000002108460020C0460321099A8905084001
:100DC000002A03DA8200801840080840800D0128BC
:100DD0000A9002DD0020C0430A90089807430DD016
:100DE000F048F149281848430714189800281DD0E6
:100DF0007542291E1DDD0A9842421BE01898012801
:100E000002D00020302104E00020F24305E021540C
:100E1000401CB042FBDB30460022189B00212154CD
:100E20000F998B600A60486013B0F0BDBD1B6D1C4C
:100E3000DFE70A9A002900DA69420BA800F04CFCAF
:100E40000BAB07CB03AB07C30899099800F0B0FCC4
:100E50006B4607C30146D5480918002D00910BDDEC
:100E6000D24903980A9A49424018002303A90390E3
:100E7000684600F00DFF08E003990A9A002308185D
:100E800003A90390684600F0ADFE6B4607C300045B
:100E9000000C03D00020C043410800E01046189A1F
:100EA000002A03D00022009215461EE0751E05D4CC
:100EB000FFF7DCFE303262556D1EF9D50122084382
:100EC000079602D000227F1C04E02078302801D150
:100ED00000227F1E002A069787D01EE0112D07DA18
:100EE000FFF7C4FE303262556D1C02460A43F5D14D
:100EF000084303D00098002819D00EE00021681E96
:100F000005E0235C625C63542254401E491C81420C
:100F1000F7DBA81B401E07950690079A189900203A
:100F2000A0540F98079B069A81600CC07CE711269D
:100F30000020189059E7D21DF0B50D460446D1089F
:100F400093B0C90003C90C900D9107F099FC0246BB
:100F50000D98C00F01D02D2007E02068810701D532
:100F60002B2002E04007C00F4001032A0F9001D060
:100F7000072A05DB03462946204600F059FB0EE10F
:100F80002078800601D5E76900E006272846652D10
:100F900004D0662814D0672D69D12DE00020112FD0
:100FA000009001DB112300E07B1C0CAA03A910A810
:100FB000FFF7F3FE1199002610987D1C0E9142E078
:100FC00001203B460CAAC0070B900120009003A90A
:100FD00010A8FFF7E2FE119D129810990026002834
:100FE0000E9501D1781C0D18781B02D446427D1C49
:100FF000761EE81B00903AE0012F00DA012700205E
:10100000112F009001DD112300E03B460CAA03A93B
:1010100010A8FFF7C2FE11993D46109800260E91C8
:10102000217809070BD40E99A94200DA0D4603A9CD
:10103000012D04DD4A19203AD27F302A06D0B84269
:1010400001DA011D04DA012100910FE06D1EEFE7C6
:10105000002802DC86192D1A03E0411CA94200DD9C
:101060000D46801B401C00900120C0070B9020788B
:10107000000705D40098A84202DB0020C04300907E
:1010800069460020C8720B98012102AF0337C907D7
:10109000884225D0022010902B2011900B98002818
:1010A0000BDA40420B902D20119006E00B9800F0D7
:1010B0008CFA30317F1E0B9039701099481E002930
:1010C0001090F3DC0B980028F0D111987F1E387037
:1010D0002088000501D5452000E065207F1E38707E
:1010E00001A8C01BC01D0B900F98002800D0012044
:1010F00041190098C01709180B980818A169081A17
:10110000401EA0612078C00602D42046FFF7C6FA30
:101110000F98002805D06268A1689047206A401C9B
:1011200020622078C00625D52046FFF7B7FA21E0D7
:10113000002E07DB0E98B04204DD03A86268805DD4
:10114000A16802E06268A16830209047206A761C9E
:10115000401C20620098401E002800900AD1FFF732
:1011600081FDC06862680168405CA1689047206AA0
:10117000401C206228466D1E0028D9DC07E062680A
:101180003878A1687F1C9047206A401C20620B9928
:10119000481E00290B90F2DC2046FFF795FA032049
:1011A00042E6000001FCFFFF104D0000E1DFFFFF01
:1011B000D21DF0B504460D46D0088DB0C00046687B
:1011C00007683146384607F05BFB0246F00F01D056
:1011D0002D2307E02068810701D52B2302E040077B
:1011E000C00F43016846002B037001D0012000E0CE
:1011F0000020032A0A9001D0072A04DB2946204652
:1012000000F016FA2DE12078800601D40D2500E0CB
:10121000E5697000400D0D2D01904BDA300D002175
:101220000B9008460020C046032189050840002E87
:1012300005DA82008018C20F10184010084080158F
:10124000012801DD0020C043A9000023182906D38E
:101250009C460A460123183A1B07D34003E00122AB
:101260001205CA4094460C31202902D33A4620394F
:1012700000E032468A40002802DD002A06D119E04B
:10128000002817D10121C9078A4213D319466346A2
:101290007F185E41002806D10120C007824202D19A
:1012A000084687439E430B98310D814202D0019836
:1012B000401C01902088000502D57149794402E064
:1012C0006F49794419396B460A9830221A540A98A2
:1012D0000A7C401C1A54401C0A900198002801DC2A
:1012E000302000E031201872019A0120002A02D03B
:1012F000644BD21804E072003A4302D0614A521C97
:101300000192002D02DC2278120703D56A462E20B6
:10131000507202200022864694460CE032033601C9
:10132000120F6D1E8B5C02AA13546246521C401CA5
:101330009446052A01DA002DF0DC002202AE08E016
:101340003B0F3F01CB5C521C6D1E3354401C082ADE
:1013500001DA002DF4DC23689A0601D511E0401E65
:10136000704504DD3218203AD27F302AF7D00028A9
:1013700007DD3218203AD27F2E2A02D11A0700D474
:10138000401E002D03DD3E223254401C6D1E497C60
:1013900031540199401C002906DA2D21471C315493
:1013A00001984042019003E02B21471C31540198E1
:1013B0007D21C900884206DBFFF7BEF83030F055CA
:1013C0007F1C019101E0642808DB01986421FFF78C
:1013D000B3F83030F0557F1C019101E00A2806DB9C
:1013E00001980A21FFF7A8F83030F0557F1C0198CA
:1013F0000A21FFF7A1F83031F1550A98A1697F1C45
:101400007A191018081AA0612078C00602D4204664
:10141000FFF744F9216A6E460A980818206204E032
:1014200062683078A168761C90470A98401E0A903E
:10143000401CF5D12078C00602D52046FFF72EF9D2
:1014400002AE09E03078761C3E280DD06268A168B3
:101450009047206A401C20627F1EF3D22046FFF78F
:1014600033F90DB00320F0BD206A4019206203E07B
:101470006268A168302090476D1EEDD3F8E7000048
:101480009480000001FCFFFF10B54369002B02D0DF
:10149000C046C04601E0FFF73AF9012010BD1278BE
:1014A000014624310A7000224A700122ECE71168DB
:1014B0000022D243E8E710B54369002B02D0C046B2
:1014C000C04601E0FFF7B4F9012010BD12880146C3
:1014D000243182840022C2840122ECE711680022B8
:1014E000D243E8E7F7B5154682B00027029C207882
:1014F000641C0197302802D0002D15D015E020780B
:101500000127641C782804D0582802D0002D09D067
:101510000BE0002D01D0102D07D1207800271025D9
:10152000641C02E0082500E00A250026009610E071
:10153000009901276943081829467143020C80B2BB
:1015400000908E183804864201D301200190207843
:10155000641C294600F0B0F80028E9DA0398002856
:1015600005D0002F01D0641E00E0029C04600198A9
:10157000002806D0FFF78EF802210160C81E05B0D2
:10158000F0BD009930040843F9E770B516460C46E3
:101590000546FFF777F80368FF200230C05C01289A
:1015A00007D0FF2C0ED8185D00280BD001202C701E
:1015B00070BDFF333246214608331868C3182846E9
:1015C000984770BD0020C04370BD01468008081ACE
:1015D00002091018020A1018020C1018C008820024
:1015E00012185200891A01E0401C0A390A29FBD25C
:1015F00070477546FFF732FBAE4605006946534615
:10160000C008C000854618B020B5FEF72DFE60BCAE
:1016100000274908B6460026C0C5C0C5C0C5C0C51C
:10162000C0C5C0C5C0C5C0C5403D49008D46704756
:10163000F8B51F46044601230068DB020326014675
:101640001840072A05DB002801D017A506E017A5DA
:1016500004E0002801D016A500E016A51020814363
:101660002160A069C01E002FA06101D0401EA061B2
:101670002046FFF713F8002F09D038466268A168AA
:101680009047206A401C2062C01C206206E0206A4D
:10169000FAE762682878A1686D1C9047761EF8D238
:1016A0002046FFF711F8F8BD4E414E006E616E0006
:1016B000494E4600696E66003A2800D23038202331
:1016C00002469A43412A01D310463738884201D353
:1016D0000020C04370470000F7B516468AB0334873
:1016E00078446C4603467C33C06F5A689B680DC4CF
:1016F0002E487844763003AC0DC80DC43720C001A5
:10170000081837211B30FEF717FF05460C46803DB1
:101710001B3C02D56442012000E000200027099014
:1017200010E0E0070CD00C20204978437944324681
:101730004C3941186846012300F054FA6B4607C340
:1017400064107F1C002CECD1184F7F442E3F16E014
:10175000E80712D02001C0190EC80691089307921D
:101760000068F04201D1981908903246012306A979
:1017700003A800F037FA03AB07C36D10641C002DFB
:10178000E6D10998002806D032466946012303A80D
:1017900000F07EFA05E001233246694603A800F016
:1017A00021FA0A9B07C30DB0F0BD0000847C000045
:1017B000034640000A4610B5400D0BD00121C90771
:1017C0000F24A40200191C0364082143540D214373
:1017D000D20207E000210120F2E7D40F49002143A3
:1017E0005200401E0029F8DADB0FDB07184310BD5A
:1017F000FFB50D46144685B04868516807F019F8E2
:1018000000910190A868A16807F013F80291039075
:10181000A868616807F00DF8029A121882420292D5
:1018200001D2012000E00020019A0B18D2180028F4
:10183000019202D08A4202D903E08A4201D20120F9
:1018400000E000200099081800906868A16806F080
:10185000F0FF029A12188242029201D2012000E0A7
:101860000020019A0B18D2180028019202D08A4257
:1018700002D903E08A4201D2012000E00020009951
:10188000081800902868216840004900400849086D
:101890004018FA49471814E001994000C90F08435D
:1018A0000090019802994000C90F084301900298E6
:1018B00003994000C90F08430290039840007F1E1F
:1018C000039000980028E7DA0898002801D0EC4E31
:1018D00000E00026B74201DA012000E000200028E5
:1018E00004902AD0F71BF806C00E15D0029B2021C9
:1018F000091A039A8B401A430392029A019BC24031
:101900008B401A430292019A009BC2408B4000997F
:101910001A430192C14000917B110DD06F46032004
:10192000C11A03D500218200B95003E08A0081006A
:10193000BA587A50401EF3D53746039802990028CA
:1019400000D00120014308980291002808460CD0DD
:10195000002800D001200199019A4905084301217E
:10196000D20AC902D202019200E001210E9B01229B
:10197000D207012B02D0002B03D013E0002807D19F
:1019800020E0904204D890420CD1019B0B4209D038
:10199000019B5918019105D10099491C009101D171
:1019A0007F1C009200280DD0102108460020C04660
:1019B0000498002806D00F98002803D00821084674
:1019C0000020C04628682168019B009A4840C10F4A
:1019D0000598C90739430EC009B0F0BDFFB587B0FF
:1019E000099A0898089953689268406889689646E9
:1019F0000022039317469446089A12685300099AE6
:101A00005B081268520052089A1A9E4BD4180A9A20
:101A1000002A01D0352200E0402206920022012354
:101A200015460492DB07059324E0002D05D1754689
:101A30000346039E4D1BB34109D375466646039B7F
:101A4000491B049D9841059B7519AC465F4163464F
:101A50003B4308D0059B049EDD0776082E435B08B8
:101A60000496059301E0521E641EC50FED07491848
:101A70004041521C069B9A42D7DB002D04D175468B
:101A8000039A6B1A824101D203200CE0039A0B46A1
:101A90006B404240134303D0014303D0012002E0D6
:101AA000022000E000206146019100210097029190
:101AB0000A99002905D0614640020143704B01910B
:101AC00002E08007002302909C4201DA012000E03E
:101AD000002007003AD01A1BD006C00E15D0029D78
:101AE0002021019C091AC5408C402543029C8C4052
:101AF00000D001242543019C0295009DC4408D40E7
:101B000000992C430194C140009154111DD06D46A1
:101B10000221002202290CD10320001B07E000282B
:101B200004DB8600AE59002E00D00122401C0328A1
:101B3000F5DB081B02D588002A5004E080002858F5
:101B400010438A00A850491EE3D51C460A98002875
:101B500002980CD0002800D001200199019A490573
:101B600008430121D20AC902D202019200E00121F8
:101B7000109B0122D207012B02D0002B03D013E0CF
:101B8000002807D11FE0904204D890420CD1019B5D
:101B90000B4209D0019B5918019105D10099491CAC
:101BA000009101D1641C009200280CD0102108463D
:101BB0000020C046002F06D01198002803D008212D
:101BC00008460020C04608980999019A009B0068C1
:101BD00009684840C10F0798C907214382600AC0BD
:101BE0000BB0F0BD00B585B0019300920A460146E6
:101BF000002302A8FFF7FCFD02A807C805B000BD3E
:101C0000FFB50A461F4685B007990193012300914D
:101C1000014602A8FFF7ECFD02990398049ECA0F43
:101C20004900D20700920F22490892028C1A002123
:101C3000002800DB0C46450013486D08844214D38D
:101C4000079A002A04DA441E0026104DF64302E0EB
:101C500004460D460E46102108460020C046002FBF
:101C600003D0042108460020C0462005E90A0843A5
:101C7000009908436905F20A1143ADE602C0FFFF6F
:101C8000013C0000FF3F0000FF070000FFFFFF7F57
:101C900000B585B0019300920A460146002302A8D0
:101CA000FFF79CFE02A807C8A8E7FFB50A461F4633
:101CB00085B00799019301230091014602A8FFF71F
:101CC0008DFE02990398049ECA0F4900D207009224
:101CD0000F22490892028C1A0021002800DB0C46D2
:101CE000450011486D08844214D3079A002A04DA8B
:101CF000441E00260D4DF64302E004460D460E46F6
:101D0000102108460020C046002F03D004210846B9
:101D10000020C0462005E90A0843009908436905E8
:101D2000F20A114358E60000FF070000FFFFFF7FA3
:101D300010B50446C046C0462046FEF785FA10BDE1
:101D400001491820ABBEFEE72600020070470000E4
:101D500000B5CC490978042975D008DC00290DD0DC
:101D600001293BD002295DD003296DD16FE00529FF
:101D70006BD006296AD06329F7D163E10021C24AFA
:101D800011700A21C14A11700121C14A117000214C
:101D9000C04A1170C04A1170C04A11700121C04A76
:101DA00011700021BF4A11701421BF4A1180012116
:101DB000B44A1170E1214901BC4A11800021BC4A9A
:101DC0001170BC4A1170BC4A1170BC4A11700121DB
:101DD000BB4A11700021BB4A117050E1B249098819
:101DE00000291ED1B84900228A56322A16DA0A2161
:101DF000B64A11700121A44A1170A64A117000213F
:101E0000A74A1170A24A11700121A64A117002213D
:101E10009C4A11700121AB4A117002E00321994ADA
:101E200011702CE1A84900228A56322A03DB0321D3
:101E3000944A117006E09D490988002902D10521C4
:101E4000904A11701BE142E018E1B7E0E9E0A049D7
:101E500009793239C8B29F4909780918632900DD28
:101E600000209C49097809183C2251439A4A118064
:101E70000021934A1170934A11700A21934A1170FC
:101E80000121814A1170834A1170854A1170052120
:101E90007E4A117001217E4A1170824A1170002120
:101EA000844A1170844A11708C4A11808C4A1180C6
:101EB0007F4A117001218B4A11708B4A11708B4936
:101EC00009788B4A117004216E4A1170D7E0784965
:101ED0000978002918D006216C4A117084490978C4
:101EE000824A1278891A022907DD80490978804AD6
:101EF00011704B21C9007F4A11807E490988002951
:101F000002D105215F4A117076490978002928D04D
:101F10006F4A042151566C4A0023D35699423ADC49
:101F20000121634A117000216E4A1170594A1170E3
:101F30006D49097800290AD000216B4A11704B21A4
:101F4000C9006C4A118069490978694A11705A4977
:101F5000097800291FD057490978491C554A117042
:101F600019E05B4A04215156491F574A0023D356B2
:101F7000994210DB01215B4A1170464A11704E49AB
:101F80000978002907D101214B4A11700021534AD9
:101F90001180534A118045490988002902D1052141
:101FA000384A117054490978002906D053490988E4
:101FB000002902D10521334A117060E00121404A15
:101FC000117000213F4A117001213C4A1170E1213A
:101FD000C9004B4A11803C4A00215156494A1180A0
:101FE0000A213A4A11700121274A11700021294A19
:101FF000117001212A4A11700621244A1170012111
:10200000234A1170274A117006211E4A11700021BF
:10201000294A117003213C4A117001213B4A117079
:102020002DE0294900228A56322A03DC6321154A11
:10203000117006E01D490988002902D16321114A67
:1020400011701CE00021104A1170114A1170114AE0
:102050001170134A1170134A11706421094A1170EA
:1020600000212B4A11702B4A117004212A4A117049
:102070000021134A1170134A117000E000BF00BF25
:1020800000BD0000BC0000207E000020A300002056
:102090007F000020800000208300002084000020BA
:1020A0008100002082000020C0000020C20000202B
:1020B00087000020C90000209A0000209D00002019
:1020C0009E0000207D0000206E000020A200002065
:1020D0000C030020BB000020EC000020D8000020F2
:1020E000DA000020880000208C0000207200002010
:1020F000BA000020B80000208A000020F000002074
:10210000E0000020E2000020F2000020F3000020A8
:10211000BD000020BE000020AF00002010B501224D
:102120008021002003F0E4FF01220221104603F089
:10213000DFFF01220421104603F0DAFF002208210C
:10214000012003F0D5FF01228021022003F0D0FFFF
:1021500001221146032003F0CBFF012204210320BA
:1021600003F0C6FF01220821032003F0C1FF012272
:102170000421072003F0BCFF01228021042003F08A
:10218000B7FF01221146052003F0B2FF0122022110
:10219000052003F0ADFF01220421052003F0A8FF74
:1021A00001220221072003F0A3FF012208210520BC
:1021B00003F09EFF01228021062003F099FF0122F7
:1021C0001146072003F094FF01221146082003F076
:1021D0008FFF01220221082003F08AFF012204213F
:1021E000082003F085FF01220821084603F080FF44
:1021F00001221021082003F07BFF0122202108206A
:1022000003F076FF01224021082003F071FF10BD8A
:1022100010B535480078002804D0012839D00228AC
:102220005ED14AE03148008800282CDD3048007833
:102230004000304909680C5A204604F03BFB2C480A
:102240000078401C2A490870084600784000294957
:1022500009680C5A20112849085C28490880200781
:10226000000F2549085C26490880012211022548F3
:1022700001F095FD01201C4908701C480088401E93
:102280001A49088004E000F03FF8632016490870FE
:1022900027E01A480088002805DD18480088401EFD
:1022A0001649088008E00022FF210131154801F09D
:1022B00076FD02200C49087013E0114800880028C0
:1022C00005DD0F480088401E0D49088007E00848DA
:1022D0000078401C0649087000200349087000E09F
:1022E00000BF00BF10BD0000300000203C000020F7
:1022F0003400002038000020208D00082C00002031
:102300002E0000200004004810B50022FF210131FA
:10231000034801F044FD0021024802F07FFD10BD9A
:10232000000400487803002019480078462803DBA1
:102330006320184908702AE0154800783C2803DB20
:1023400050201449087022E011480078322803DB3D
:102350003C20104908701AE00D480078282803DB5B
:1023600028200C49087012E0094800781E2803DB79
:102370001E20084908700AE0054800780A2803DB97
:1023800014200449087002E00A20024908707047CE
:1023900072000020BB0000201E480078002835D0C5
:1023A0001D480078002831D01C4800780A282DD11B
:1023B0001B480078012829D11A480078002825D127
:1023C0001948807A194900228A5E101A1849002299
:1023D0008A56904216DB17480078002807D1012062
:1023E00014490870E120C0001349088011E0124828
:1023F000008800280DD111480088012108430F49A9
:10240000088006E000200B49087002E0002009491E
:10241000087070477E00002080000020A20000208D
:10242000AE000020740000200C030020700000208B
:102430006E00002095000020CC000020AA000020A3
:1024400010B524480078002804D0002021490870E5
:1024500001F09AF900F0F8FFFFF766FF1E480078D8
:10246000012835D11D480088002820D11C4800785B
:10247000002804D0022805D0042816D105E0FFF773
:1024800067FC13E004F06EFE10E000F03DF8154824
:102490000078012806D114480078642804D104F09B
:1024A000CDFC01E005F05EF800E000BF10E0002088
:1024B0000E4908700E4908700E4908700E490870E0
:1024C0000E4908700E4908700E49087005F04AF868
:1024D00010BD000079000020AE000020AA000020FE
:1024E000AF00002086000020BE0000207E000020FB
:1024F0007F00002080000020830000208400002056
:10250000810000208200002041480078002806D089
:10251000012819D0632843D0642875D166E03D486E
:1025200000214156322908DC3B480021415E6429E4
:1025300003DA63203649087005E001203449087049
:1025400003203649087060E00120354908700020FA
:10255000344908700A203449087001203349087052
:102560000A2033490870012032490870002032499E
:1025700008703249087032490870012031490870EA
:1025800031490870234800214156322907DC22488E
:102590000021415E642902DA63201D49087034E09D
:1025A00000202249087023490870234908702349F4
:1025B0000870234908702349087023490870642073
:1025C000134908700020164908701649087013480E
:1025D0000078012809D011480078062805D01B484A
:1025E0000078002801D10D4908700EE0094800214B
:1025F0004156322904DC08480021415E642902DB8F
:1026000000200349087000BF00BF00BF70470000F2
:10261000BE0000206E00002070000020B0000020EE
:102620009E0000207D000020A20000207E000020EF
:10263000A30000207F0000208000002083000020F5
:1026400084000020810000208200002086000020FD
:1026500010B504480078002803D001F025F905F0F2
:10266000BDFF10BD4000002000B5C3480078002821
:1026700072D0C24800780128FAD0C14800780028FA
:102680006AD1BE4800780428F2D0BC4800780528FA
:10269000EED0BC4800880028F2D1BB480078002862
:1026A00074D1BA4800780028EAD11420B7490870DC
:1026B000B7480078030006F0D4F806041D36506AC7
:1026C000839CB448007980210840B24908710846CB
:1026D000007901210843AF490871084680798021BB
:1026E0000840AC4988710846807901210843A9490E
:1026F00088717FE0A748007980210840A5490871CA
:102700000846007902210843A249087108468079E9
:10271000802108409F49887108468079202108431C
:102720009C49887166E09B4800798021084099495E
:102730000871084600790421084396490871084643
:10274000807980210840934988710846807910215A
:102750000843904988714DE058E08E480079802107
:1027600008408C49087108460079082108438949C6
:10277000087108468079802108408649887108469A
:102780008079082108438349887133E03FE081481C
:102790000079802108407F4908710846007910219E
:1027A00008437C49087108468079802108407949AE
:1027B000887108468079042108437649887119E0B8
:1027C00074480079802108407249087108460079F0
:1027D000202108436F49087108468079802108400C
:1027E0006C498871084680790221084369498871DB
:1027F00000E000BF00BF66480078401C64490870D4
:1028000008460078052801DD00200870B2E05F4826
:1028100000780028FAD114205C4908705C480078E0
:10282000030006F01EF806041D364F68819A5948C9
:102830000079802108405749087108460079012134
:10284000084354490871084680798021084051495D
:10285000887108468079012108434E4988717DE0DE
:102860004C480079802108404A490871084600799F
:102870002021084347490871084680798021084093
:10288000444988710846807902210843414988718A
:1028900064E040480079802108403E4908710846BC
:1028A0000079102108433B4908710846807980214E
:1028B0000840384988710846807904210843354921
:1028C00088714BE033480079802108403149087114
:1028D00008460079082108432E4908710846807986
:1028E000802108402B4988710846807908210843D7
:1028F0002849887132E0274800798021084025491D
:1029000008710846007904210843224908710846E5
:102910008079802108401F498871084680791021FC
:1029200008431C49887119E01A4800798021084041
:1029300018490871084600790221084315490871B1
:1029400008468079802108401249887108468079BC
:10295000202108430F49887100E000BF00BF0C48E8
:102960000078401C0A49087008460078052801DDF7
:102970000020087000BD00009E000020B000002074
:1029800074000020AA0000207D000020EE0000203E
:10299000EF0000202403002010B58F4800780028A5
:1029A00070D08E48007800286DD000208B490870C8
:1029B00000220E21104604F07BF90022192102208A
:1029C00004F076F98648007800281ED0002419E02B
:1029D00084480088844909880840002800D013E012
:1029E000814800880121C903884203D101207E4922
:1029F000088005E07C4800884004000C7A49088083
:102A0000601CC4B2102CE3DB00BF7748018820298A
:102A10005BD00CDC042937D004DC01291CD002294E
:102A200074D124E008293AD01029F9D142E0FF22DC
:102A30000132881A91426BD004DC402950D08029A1
:102A4000EED158E0FF38013800286CD0FF38FF384D
:102A5000023800287DD171E000221146042004F0E4
:102A600027F900220121062004F022F972E0002259
:102A70001146042004F01CF900220221062004F073
:102A800017F967E082E098E000221146042004F084
:102A90000FF900220321062004F00AF95AE000226F
:102AA0001146042004F004F900220421062004F059
:102AB000FFF84FE000221146042004F0F9F800224C
:102AC0000521062004F0F4F844E000221146042019
:102AD00004F0EEF800220621084604F0E9F839E097
:102AE00000221146042004F0E3F80022072106200A
:102AF00004F0DEF82EE000221146042004F0D8F89D
:102B000000220821062004F0D3F823E021E0FFE7AB
:102B100000221146042004F0CBF8002209210620EF
:102B200004F0C6F816E000220121042004F0C0F8E9
:102B300000221146062004F0BBF80BE00022012120
:102B4000042004F0B5F800220121062004F0B0F8BA
:102B500000E000BF00BF2248007800280FD12248C3
:102B600000880121C903884203D101201E49088041
:102B700005E01D4800884004000C1B4908801848E7
:102B80000078012148401649087016E001201349D9
:102B9000087000221221104604F08AF80022122147
:102BA000022004F085F800221221042004F080F8AD
:102BB00000221221062004F07BF80C48007800283F
:102BC00009D10B480078012805D13C20074908703D
:102BD000052003F0C9FE10BD010000209200002076
:102BE00093000020AA000020AC000020C8000020B4
:102BF000AE00002070B500221521104604F058F8F0
:102C00003C480021415E002924DA0088404284B219
:102C100000221021022004F04BF80A2C0ADB0A21C2
:102C20002046FDF789FCC5B200222946042004F0A5
:102C30003FF804E000221221042004F039F80A21B0
:102C40002046FDF779FCCDB200222946062004F08B
:102C50002FF84EE02748008884B2642C23DB6421DF
:102C60002046FDF769FCC5B200222946022004F087
:102C70001FF864212046FDF75FFC0E460A2130460E
:102C8000FDF75AFCC5B200222946042004F010F8D2
:102C90000A212046FDF750FCCDB20022294606202D
:102CA00004F006F825E000221221022004F000F8CA
:102CB0000A2C0FDB64212046FDF73EFC0E460A215C
:102CC0003046FDF739FCC5B200222946042003F046
:102CD000EFFF04E000221221042003F0E9FF0A21A3
:102CE0002046FDF729FCCDB200222946062003F03C
:102CF000DFFF70BD7000002070B504460022152172
:102D0000104603F0D5FF00221C21022003F0D0FF63
:102D10000A2C0ADB0A212046FDF70EFCC5B2002270
:102D20002946042003F0C4FF04E0002212210420FD
:102D300003F0BEFF0A212046FDF7FEFBCCB20022C5
:102D40002146062003F0B4FF70BD000010B57A489C
:102D50000078030005F085FD08EC0526476889AA80
:102D6000CBEC00220C21104603F0A2FF00220E2122
:102D7000022003F09DFF7149887A0A21FDF7DCFBF0
:102D8000C4B200222146042003F092FF6B49887AE6
:102D90000A21FDF7D1FBCCB200222146062003F028
:102DA00087FFC6E000221521104603F081FF0022B4
:102DB0000E21022003F07CFF6049C87A0A21FDF74A
:102DC000BBFBC4B200222146042003F071FF5B4923
:102DD000C87A0A21FDF7B0FBCCB2002221460620BA
:102DE00003F066FFA5E000220521104603F060FF16
:102DF00000220E21022003F05BFF5049087B0A21CC
:102E0000FDF79AFBC4B200222146042003F050FFD4
:102E10004A49087B0A21FDF78FFBCCB200222146EC
:102E2000062003F045FF84E000221146104603F01F
:102E30003FFF00220E21022003F03AFF3F49487B6A
:102E40000A21FDF779FBC4B200222146042003F0D9
:102E50002FFF3A49487B0A21FDF76EFBCCB20022D6
:102E60002146062003F024FF63E000221D211046C6
:102E700003F01EFF00221521022003F019FF2F4945
:102E8000887B0A21FDF758FBC4B2002221460420AA
:102E900003F00EFF2949887B0A21FDF74DFBCCB2D8
:102EA00000222146062003F003FF42E00022142105
:102EB000104603F0FDFE00221521022003F0F8FE6B
:102EC0001E49C87B0A21FDF737FBC4B20022214608
:102ED000042003F0EDFE1949C87B0A21FDF72CFB05
:102EE000CCB200222146062003F0E2FE21E00022BF
:102EF0000F21104603F0DCFE00221821022003F00F
:102F0000D7FE0E49088A0A21FDF716FBC4B200223B
:102F10002146042003F0CCFE0849088A0A21FDF767
:102F20000BFBCCB200222146062003F0C1FE00E0DC
:102F300000BF00BF10BD0000A00000200C03002057
:102F400070B5ED480078062802D1FFF7FFFE70BD8E
:102F5000EA480088002802DDFFF71EFDC9E1E848C5
:102F60000078002841D0E748007800281ED0E548C6
:102F70000078E5490978884236D0E2480078E2498D
:102F8000087000221146104603F092FE00221A211A
:102F9000022003F08DFE00220E21042003F088FEA3
:102FA00000221121062003F083FE1DE0D5480078A1
:102FB000D5490978884217D0D2480078D24908709C
:102FC00000221221104603F073FE0022122102207B
:102FD00003F06EFE00221221042003F069FE00229D
:102FE0001221062003F064FEB1E7C34800780128EF
:102FF0000ED0C6480078002805D0012211461046A0
:1030000003F076F804E000220121084603F070F88E
:10301000B9480078030005F024FC09FACB6749C3DE
:10302000C6F90648F900BA48007800281ED0B8480A
:103030000078B5490978884236D0B5480078B24959
:10304000087000220F21104603F032FE00221621E4
:10305000022003F02DFE00220C21042003F028FEA4
:1030600000221321062003F023FE1DE0A84800786B
:10307000A5490978884217D0A5480078A249087068
:1030800000221221104603F013FE0022122102201A
:1030900003F00EFE00221221042003F009FE00229C
:1030A0001221062003F004FE22E121E199490020CB
:1030B000085600F041F998480078002813D1974845
:1030C000007804280FD0964800883C2802DA3C207B
:1030D000934908803C2192480088FDF72DFAC5B23B
:1030E000284600F069F903E18C480078002802D0F6
:1030F000022852D128E08348007800280FD0814868
:1031000000788149097888421DD07E4800787E4940
:10311000087084490420085600F00EF913E079483D
:1031200000787949097888420DD076480078764948
:10313000087000221221104603F0BAFD002212216D
:10314000022003F0B5FD29E06E48007800280FD07A
:103150006C4800786C49097888421DD0694800782D
:10316000694908706F490820085600F0E5F813E037
:10317000644800786449097888420DD06148007835
:103180006149087000221221104603F091FD0022CF
:103190001221022003F08CFD00E000BF00BFA7E079
:1031A000FFF728FDA4E060480078FFF7A5FD9FE049
:1031B00054480078002842D0524800785249097893
:1031C000884222D04F4800784F49087001221146AA
:1031D000104602F08DFF55480078002818D10A21CA
:1031E00053480078FDF7A8F9C4B2002221461046E2
:1031F00003F05EFD0A214E480078FDF79DF9CCB240
:1032000000222146022003F053FD6CE06FE06BE0EA
:103210000A2148480078FDF78FF9C4B20022214600
:10322000042003F045FD0A2142480078FDF784F9A7
:10323000CCB200222146062003F03AFD53E031488B
:1032400000783149097888424DD02E4800782E49BF
:10325000087000220121084602F04AFF3348007836
:10326000002820D100221221104603F021FD002267
:103270001221022003F01CFD0A212E480078FDF7E0
:103280005BF9C4B200222146042003F011FD0A219B
:1032900028480078FDF750F9CCB2002221460620DC
:1032A00003F006FD1FE000221221042003F000FDC0
:1032B00000221221062003F0FBFC0A211C480078A2
:1032C000FDF73AF9C4B200222146104603F0F0FCA3
:1032D0000A2117480078FDF72FF9CCB200222146C9
:1032E000022003F0E5FC03E005F010FA00E000BF67
:1032F00000BF00BF2BE60000B0000020AA000020A5
:103300007400002001000020730000209C000020B9
:10331000020000206E0000209E000020AF00002070
:10332000EC0000200C03002072000020B3000020FD
:10333000E8000020E900002070B504461220C043D8
:10334000844200DA0446002C19DA604244B20A2CA6
:1033500005DB00221C21104603F0AAFC04E0002239
:103360001021104603F0A4FC0A212046FDF7E4F8E2
:103370000C46E1B20022022003F09AFC1BE00A2C6A
:103380000ADB0A212046FDF7D7F8C5B200222946FC
:10339000104603F08DFC04E000221221104603F0D9
:1033A00087FC0A212046FDF7C7F80C46E1B200224F
:1033B000022003F07DFC70BD70B504460A21204652
:1033C000FDF7BAF8C5B200222946042003F070FCCC
:1033D0000A212046FDF7B0F8CDB20022294606208A
:1033E00003F066FC70BD10B500220D21104603F0FD
:1033F0005FFC00221921022003F05AFC0022042164
:10340000084603F055FC00220821062003F050FC7A
:1034100010BD000000B50948007800280DD1FEF766
:10342000BBFF03F013FA03F0DBFC05F03DF904F0F9
:1034300021FB01F021FE01F03FFE00BDCA0000208B
:1034400072B600BFFEE7000010B5094800880121F0
:103450008902084000280AD006480078002806D1D2
:1034600003480088884302490880FEF74DFF10BDDD
:10347000AA0000205200002000200749C861074828
:103480000069042108430549086108460069402194
:103490000843024908617047C80400200020024028
:1034A0000021084AD1610849096902221143064AEC
:1034B000116111464861096940221143024A1161B4
:1034C00070470000C8040020002002400022054B85
:1034D000DA61054A126901231A43034B1A6101801C
:1034E00070470000C80400200020024000200F495F
:1034F000C96810221140102907D10D49C96902225B
:1035000011430B4AD161102108430849C9680422BC
:103510001140042907D10649C96901221143044A0F
:10352000D161042108430149C8607047002002406E
:10353000C804002070B5044600F038FC05460BE0D6
:10354000601C002808D0002C04D000F02FFC401B89
:10355000A04201D9032070BD0F48C068C007C00F4A
:103560000028EDD10C48C06820210840202801D156
:103570000949C8600848C06810210840102805D0D3
:103580000548C06804210840042803D1FFF7AEFFB6
:103590000120E0E70020DEE7002002401FB5002008
:1035A00000906548654908600846006800686449FD
:1035B000086008460068401C002876D16149086010
:1035C000462008711E204871462088711E20C8714F
:1035D000462008720F204872052048731420887214
:1035E0000320C87228200873052088735F20C873E1
:1035F0001E2008820020486172B600F0ABFA342029
:103600005149C86000204E4908601CE0002001902C
:103610004B480068484940180290012003906946D1
:1036200001A800F0D9F9002806D000F02BFA62B604
:1036300046A005F0F7FA1FBD414800680121890244
:1036400040183F4908603E480068012189038842CC
:10365000DCD33C48434908601CE0424800680468E9
:103660002246002335480168022000F015FA0028A0
:1036700006D000F007FA62B63BA005F0D3FADAE70D
:103680002E480068001D2D49086036480068001D5E
:103690003449086029480068274918318842DCD33A
:1036A00000F0F0F962B644E0FFE718202449086012
:1036B00016E0234800682049401800683049086037
:1036C00008460068401C002805D11D4800681838CD
:1036D0001B49086009E01A4800681830184908605A
:1036E0001748006827498842E3D300BF15481D49A1
:1036F00008601348006810494018104908600FE03E
:103700000E48006800681749096808600B4800689F
:10371000001D0A49086013480068001D114908602F
:10372000074800680449401818300449096888426D
:10373000E6D800BF7FE7000000C00008F4000020CA
:10374000F80000200C03002000200240466C61734A
:1037500068204572617365204572726F7221210A7B
:103760000000000000010020466C61736820507268
:103770006F6772616D204572726F7221210A0000BD
:10378000FC000020E83F000030B585B0002001902B
:1037900034480068344940181830009072B600F080
:1037A000D9F934203149C8603149009888422BD377
:1037B0000020304908601DE0002002902D4800687C
:1037C0002949401803900120049001A902A800F0A3
:1037D00003F9002807D000F055F962B626A005F0DD
:1037E00021FA05B030BD2348006801218902401844
:1037F000204908601F480068012189038842DBD303
:1038000000201849086004E016480068183015497F
:10381000086014480068144940180090114C13E0E7
:1038200025682A4600230220009900F035F9002877
:1038300006D000F027F962B615A005F0F3F9D0E73D
:103840000098001D0090241D064800680649401895
:10385000183000998842E3D800F014F962B600BF2E
:10386000BFE700000C03002000C000080020024059
:10387000A0FF0008F8000020466C617368204572C4
:10388000617365204572726F7221210A0000000089
:10389000466C6173682050726F6772616D2045726B
:1038A000726F7221210A000070B53C4805880088BB
:1038B000401E3B490C5C082C01D07F2C20D10020FD
:1038C00038490870012D13D934480088801E3349C7
:1038D000088000203249314A12888854082003F0B9
:1038E000FFF9202003F0FCF9082003F0F9F953E078
:1038F00000202A4908802A49284A128888544BE027
:1039000026480088202801DA0D2C17D101202549EE
:1039100008700D2003F0E4F90A2003F0E1F901201A
:103920002149087000211D480088401E1C4A11547E
:103930001A480088401E194908802DE00D2C11D12D
:10394000012018490870002114480088401E144ABC
:10395000115412480088401E104908800120124965
:10396000087019E01B2C11D101200E4908700D20A0
:1039700003F0B6F90A2003F0B3F901200A490870F0
:103980000020074908700549088005E00020054926
:103990000870204603F0A4F970BD0000420000202A
:1039A00029010020400000204A00002070B5044694
:1039B00000F0FCF906462546681C002802D00548A0
:1039C00000782D1800BF00F0F1F9801BA842FAD34F
:1039D00070BD00000C010020F8B504460E4601271A
:1039E000002500BF2448007E012801D10220F8BD37
:1039F00001202149087600BF2068012811D11F4805
:103A0000FFF798FD002830D1FFF736FD1B48FFF780
:103A100091FD07461A480069042188431849086146
:103A200023E01648FFF786FD00281ED1401E3060B7
:103A3000656813E02846FFF733FD1048FFF77AFD6D
:103A400007460F480069022188430D490861002F8D
:103A500001D0356008E0012080022D18A0688002A6
:103A600061684018A842E5D800BF00BF00200249A5
:103A7000087600BF3846BAE7C804002050C30000EB
:103A80000020024003480069802108430149086181
:103A90000020704700200240F0B51FB486B00746F2
:103AA00015461E460120039000240020029000BF0E
:103AB0002548007E012802D102200BB0F0BD012074
:103AC0002149087600BF2148FFF734FD0390039891
:103AD000002831D1012F02D10120029006E0022FEF
:103AE00002D10220029001E00420029000241FE095
:103AF00022012846314604960595FCF7C7FB80B2A3
:103B0000610001900798081800900199FFF7DEFC0A
:103B10000E48FFF70FFD03900D4800694008400074
:103B20000B4908610398002800D004E0601CC4B26F
:103B300002988442DCDB00BF00BF00200249087607
:103B400000BF0398B9E70000C804002050C300007C
:103B50000020024000200949096980221140002903
:103B60000BD00749054A5160064951601146096961
:103B700080221140002900D001207047002002401F
:103B800023016745AB89EFCD78B503460A4600218E
:103B9000DFE001268E4014683440002C7ED0157979
:103BA000AD07AD0F012D04D01579AD07AD0F022D76
:103BB00018D198684E000325B5400646AE433046FE
:103BC0004E00D568B54028439860586801258D405F
:103BD0000646AE4330461026556835402D098D40C7
:103BE000284358601579AD07AD0F032D0BD0D86869
:103BF0004E000325B5400646AE4330464E0095685C
:103C0000B5402843D8601579AD07AD0F022D15D109
:103C1000CD08AE001D462035A8594D07EE0E0F25E4
:103C2000B5400646AE4330464E07F60E1569B54020
:103C30002843CD08AD001E462036705118684E004E
:103C40000325B5400646AE4330461579AD07AD0FA6
:103C50004E00B540284318600326360455683540A9
:103C6000002D75D000BF3E4DAD69012635433C4E59
:103C7000B5613546AD69ED07ED0F009500BF00BF9A
:103C8000384D8E08B600A8598D072E0F0F25B54068
:103C90000646AE4330460925ED0600E058E0AB424B
:103CA00001D100250FE0304DAB4201D101250AE0E2
:103CB0002E4DAB4201D1022505E02D4DAB4201D185
:103CC000032500E005258E07360FB5402843254D16
:103CD0008E08B600A851274D28680546A5432846FA
:103CE0000126360455683540002D02D0054625438F
:103CF0002846204D286068680546A54328460126C9
:103D0000760455683540002D02D0054625432846E7
:103D1000184D6860A8680546A54328460126360563
:103D200055683540002D02D0054625432846114DE3
:103D3000A860E8680546A54328460126760555682B
:103D40003540002D02D0054625432846094DE86040
:103D5000491C1568CD40002D00D01AE778BD000041
:103D6000001002400800014000040048000800481C
:103D7000000C004800040140024613690B40002B70
:103D800001D0012000E00020704710B542691346C1
:103D90000B401B040C4694432343836110BD002A4F
:103DA00001D0816100E08162704700000148006835
:103DB000704700000401002008B500BF0949896967
:103DC00001221143074A916111468969C907C90F48
:103DD000009100BF00BF044909680143024A116015
:103DE00008BD0000001002400000014003480068C8
:103DF0000349097840180149086070470401002010
:103E00000C01002010B50648006810210843044941
:103E10000860002000F006F800F02EF8002010BD29
:103E20000020024070B50446104801787D20C00093
:103E3000FCF778FB064631460D480068FCF772FB3C
:103E4000054600F0F9FC002801D0012070BD042CCB
:103E500007D200222146501E00F040F805480460B9
:103E600001E00120F2E70020F0E700000C01002053
:103E7000100100200801002008B500BF0D4880692E
:103E8000012108430B49886108468069C007C00FBB
:103E9000009000BF00BF00BF0846C0690904084386
:103EA0000449C8610846C06909040840009000BF81
:103EB00000BF08BD001002400146002909DB00BF19
:103EC00000BFCB06DB0E01229A40034B1A6000BFF5
:103ED00000BF00BF7047000000E100E070B504467D
:103EE0000D4616462946204604F0E0FC70BD000051
:103EF000F8B5044600260025012109042068084081
:103F000088427AD100274B48C0690903084000283D
:103F10000DD100BF4748C06908434649C8610846FB
:103F2000C06909040840009000BF00BF0127424853
:103F30000068FF2101310840002816D13E48006882
:103F400008433D490860FFF731FF064606E0FFF7EA
:103F50002DFF801B642801D90320F8BD3648006876
:103F6000FF21013108400028F1D03248006A0321C6
:103F7000090208400546002D2DD060680840A8427F
:103F800029D02C48006A884305462A48006A012146
:103F900009040843274908620846006A0121090408
:103FA00088432449086208460562E807C00F0028D4
:103FB00011D0FFF7FBFE064607E0FFF7F7FE801B78
:103FC0001E49884201D90320C7E71A48006A022126
:103FD00008400028F1D01748006A032109028843ED
:103FE0006168084313490862012F05D10846C0697A
:103FF000090488430F49C86100BF2078C007C00F7B
:10400000002807D00B48006B80088000A168084397
:1040100008490863202120680840202807D1054866
:10402000006B10218843E1680843024908630020BF
:1040300093E7000000100240007000408813000069
:1040400070B504460D46002C01D1012070BD5248C8
:104050000068C007C00FA8420ED24F480068400851
:10406000400028434C49086008460068C007C00F5C
:10407000A84201D00120E9E7022120680840022877
:1040800014D1042120680840042807D1434840681F
:104090000721090288434018404948603F4840686A
:1040A000F0218843A16808433C4948602078C00754
:1040B000C00F00283BD06068012808D1374800684D
:1040C000012149040840002815D10120BEE760689D
:1040D000022808D13148006801214906084000281B
:1040E00009D10120B2E72D480068022108400028CC
:1040F00001D10120AAE72948406880088000616852
:10410000084326494860FFF751FE064607E0FFF7DF
:104110004DFE801B2249884201D9032096E71F48A3
:1041200040680C210840616889008842EFD11A4834
:104130000068C007C00FA8420ED9174800684008A1
:10414000400028431449086008460068C007C00FB3
:10415000A84201D0012079E7042120680840042802
:1041600008D10E484068072109028843E1680843E6
:104170000A49486000F032F808494968F0221140C5
:104180000909084A515CC840074908600020FFF748
:1041900049FE00205AE700000020024000100240C3
:1041A00088130000E8920008100100200148006810
:1041B000704700001001002000B5FFF7F7FF054928
:1041C0004968072212021140090A034A515CC8409B
:1041D00000BD000000100240F8920008F0B589B060
:1041E00027A001460EC9C06805AC0EC4089028A0DF
:1041F00001460EC9C06801AC0EC40490002400251D
:104200000027002600200090254844680C2020400C
:1042100000282DD0042802D0082828D102E0214807
:10422000009028E00F2080042040800C05A90E5C3F
:104230001B48C06A0007000F01A90D5C01200004A3
:1042400020400121090488420AD12A46002315484A
:104250001946FCF72CF8314604F0EBFA074604E067
:104260001148314604F0E5FA0746009703E000BF25
:104270000C48009000BF00BF009809B0F0BD0000DE
:1042800002030405060708090A0B0C0D0E0F101097
:104290000102030405060708090A0B0C0D0E0F1096
:1042A0000010024000127A0000093D00FEB50446ED
:1042B000002C01D10120FEBD2078C007C00F0028CE
:1042C00071D0FC4840680C21084004280BD0F94804
:1042D00040680840082812D1F648406801210904C6
:1042E000084088420BD1F348006801214904084086
:1042F00000286BD06068002868D10120DBE700BF90
:104300006068012807D1EB480068012109040843CF
:10431000E849086031E0606800280ED1E54800688F
:10432000012109048843E349086008460068012127
:1043300089048843DF4908601FE0606805280ED1C2
:10434000DC480068012189040843DA49086008460E
:104350000068012109040843D64908600DE0D548EA
:104360000068012109048843D249086008460068B2
:10437000012189048843CF49086000BF6068002894
:1043800012D0FFF713FD054606E0FFF70FFD401BB7
:10439000642801D903208EE7C6480068012149043A
:1043A00008400028F1D011E0FFF700FD054606E0C7
:1043B000FFF7FCFC401B642801D903207BE7BD48C4
:1043C00000680121490408400028F1D10221206839
:1043D0000840022861D1B74840680C2108400028F5
:1043E0000BD0B4484068084008281BD1B148406849
:1043F000012109040840002814D1AE4800680221B8
:104400000840002804D0E068012801D0012052E7CC
:10441000A8480068F82188432169C9000843A549D4
:1044200008603AE0E068002820D0A2480068012136
:104430000843A0490860FFF7B9FC054606E0FFF70E
:10444000B5FC401B022801D9032034E799480068D5
:10445000022108400028F2D096480068F8218843DD
:104460002169C90008439349086016E09148006833
:10447000400840008F490860FFF798FC054606E0B9
:10448000FFF794FC401B022801D9032013E7894859
:104490000068022108400028F2D108212068084065
:1044A000082831D1E069002817D08248406A0121EC
:1044B000084380494862FFF779FC054606E0FFF7AC
:1044C00075FC401B022801D90320F4E67948406AB4
:1044D000022108400028F2D016E07648406A4008E1
:1044E000400074494862FFF761FC054606E0FFF7AB
:1044F0005DFC401B022801D90320DCE66D48406AC0
:10450000022108400028F2D1042120680840042834
:1045100073D1002001906748C069890608400028CF
:104520000ED100BF6348C06908436249C8610846AC
:10453000C06909040840009000BF00BF012001903D
:104540005D480068FF2101310840002816D15A4813
:104550000068084358490860FFF728FC054606E054
:10456000FFF724FC401B642801D90320A3E652482E
:104570000068FF21013108400028F1D000BFA06889
:10458000012806D14B48006A0121084349490862C5
:104590002BE0A06800280CD14648006A4008400083
:1045A000444908620846006A042188434149086278
:1045B0001BE0A06805280CD13E48006A042108438E
:1045C0003C4908620846006A0121084339490862EB
:1045D0000BE03848006A4008400036490862084647
:1045E000006A042188433349086200BFA06800289C
:1045F00013D0FFF7DBFB054608E02BE0FFF7D6FB07
:10460000401B2E49884201D9032054E62948006AFC
:10461000022108400028F1D011E0FFF7C7FB054652
:1046200007E0FFF7C3FB401B2449884201D9032060
:1046300041E62048006A022108400028F1D1019893
:10464000012806D11B48C06901210907884319497F
:10465000C86100BF102120680840102860D160693F
:1046600001282DD11348406B0421084311494863A8
:104670000846406B012108430E494863FFF796FB4B
:10468000054606E0FFF792FB401B022801D90320F4
:1046900011E60848406B022108400028F2D0054886
:1046A000406BF8218843A169C90008430149486368
:1046B00036E0000000100240007000408813000047
:1046C0006069401D00280FD15A48406B042188437F
:1046D000584948630846406BF8218843A169C900DE
:1046E0000843544948631BE05248406B0421084387
:1046F000504948630846406B400840004863FFF754
:1047000055FB054606E0FFF751FB401B022801D987
:104710000320D0E54748406B022108400028F2D131
:10472000206A00284FD0434840680C2108400828E0
:1047300064D0206A022847D13E480068012109065A
:1047400088433C490860FFF731FB054606E0FFF768
:104750002DFB401B022801D90320ACE53548006839
:104760000121490608400028F1D100BF3148C06A44
:1047700000090001E16A08432E49C862616AA06A23
:1047800008432C4949683D221204914308432949B2
:10479000486000BF08460068012109060843254912
:1047A0000860FFF703FB054606E0FFF7FFFA401B32
:1047B000022801D903207EE51E4800680121490630
:1047C00008400028F1D033E01A48006801210906AA
:1047D000884318490860FFF7E9FA054606E0FFF745
:1047E000E5FA401B022801D9032064E5114800685E
:1047F0000121490608400028F1D119E0206A01286A
:1048000000D158E50B484668C76A012000043040D3
:10481000616A88420AD13907090FE06A814205D1ED
:104820000F2080043040A16A884201D0012042E577
:10483000002040E50010024070B504462546681E81
:104840000949884201D901200CE0681E07494861E6
:104850000321081F04F02AF800200449886107207A
:104860000861002070BD0000FFFFFF0000E000E0D5
:1048700010B50346002200BF3C20C05C012801D1D6
:10488000022010BD01243C20C45400BF100A0002C5
:10489000CC6820430246104603242402A0438C68BF
:1048A0002043024610460124A402A0434C68204342
:1048B000024610460124E402A0430C68204302464D
:1048C000104601242403A0430C69204302461046ED
:1048D00001246403A0434C6920430246104601248E
:1048E000A403A043CC69204302461868426400BF79
:1048F00000243C20C45400BF0020C2E730B502466B
:104900000B4600BF3C20805C012801D1022030BD55
:1049100001253C20855400BF02253D2085541068A8
:1049200044681068816870252046A84304461868CA
:104930000443106844600F4D1068A84207D00E4D24
:104940001068A84203D00D4D1068A84207D18025F9
:104950000846A84301465868014310688160012554
:104960003D20855400BF00253C20855400BF002019
:10497000CDE70000002C0140000400400040014051
:1049800010B50446002C01D1012010BD3D20005D72
:10499000002805D100213C200155204600F022F8D6
:1049A00002213D200155211D206802F05FFE0121FA
:1049B0004620015500BF3E2001553F2001554020B3
:1049C00001554120015500BF00BF42200155432041
:1049D0000155442001554520015500BF3D2001559A
:1049E0000020D2E708B5134A016891420DD100BFFB
:1049F00011498969D21411430F4A9161114689699D
:104A0000D2141140009100BF13E00C4A016891429A
:104A10000FD100BF08498969012292041143064A57
:104A2000916111468969012292041140009100BFF1
:104A300000BF08BD002C01400010024000480140AA
:104A4000F8B504460D460020009000BF3C20005DF4
:104A5000012801D10220F8BD01213C20015500BFF1
:104A600002213D2001552068866877213046884321
:104A70000646FF21090230468843064620688660C4
:104A80002868502834D00CDC202851D004DC0028C1
:104A90004CD0102852D14AE030284AD040284DD17D
:104AA0003AE060282ED0702807D001210903401A6F
:104AB00002D0401A42D10DE043E0EB686A68A96871
:104AC000206802F034FE206886687720064320685C
:104AD000866036E0EB686A68A968206802F027FE05
:104AE000206880680121890308432168886028E0E4
:104AF000EA686968206802F08BFF5021206802F0A4
:104B000024FE1EE0EA686968206802F09AFF6021CE
:104B1000206802F01AFE14E0EA686968206802F072
:104B200077FF4021206802F010FE0AE000BF00BFBE
:104B300000BF2968206802F008FE02E00120009012
:104B400000BF00BF01213D20015500BF00213C20D6
:104B5000015500BF00987EE710B586B004461421C9
:104B600001A8FBF799FC1149206888421CD100BFBD
:104B70000F4840690121890408430D4948610846EE
:104B80004069012189040840009000BF00BF48121D
:104B900001900220029000200390049002200590D2
:104BA00001A90448FEF7F0FF06B010BD004801401F
:104BB0000010024000040048F8B504460D461646B1
:104BC000002700BF3C20005D012801D10220F8BD74
:104BD00001213C20015500BF002E06D0042E1BD021
:104BE000082E33D00C2E62D147E02946206802F00F
:104BF000B9FD206880690821084321688861206820
:104C00008069042188432168886120688069296956
:104C10000843216888614CE02946206802F0FAFDCB
:104C2000206880690121C9020843216888612068E1
:104C30008069012189028843216888612068806930
:104C40002969090208432168886132E02946206801
:104C500002F040FE2068C069082108432168C8614D
:104C60002068C069042188432168C8612068C06940
:104C7000296908432168C8611BE02946206802F0C1
:104C800087FE2068C0690121C90208432168C86104
:104C90002068C0690121890288432168C8612068B1
:104CA000C0692969090208432168C86101E0012738
:104CB00000BF00BF00BF00213C20015500BF3846A7
:104CC00085E710B50446002C01D1012010BD3D2020
:104CD000005D002805D100213C200155204600F050
:104CE00022F802213D200155211D206802F0BEFC62
:104CF00001214620015500BF3E2001553F200155AE
:104D0000402001554120015500BF00BF4220015500
:104D100043200155442001554520015500BF3D2049
:104D200001550020D2E7704770B504460D46002DAE
:104D300002D13E20005D0BE0042D02D13F20005D3A
:104D400006E0082D02D14020005D01E04120005D19
:104D5000012801D0012070BD002D03D102213E2089
:104D600001550EE0042D03D102213F20015508E03A
:104D7000082D03D102214020015502E002214120EB
:104D8000015501222946206802F0C0FC1E49206816
:104D900088420BD01D492068884207D01C492068F2
:104DA000884203D01B492068884201D1012000E0DD
:104DB0000020002806D02068406C0121C903084368
:104DC0002168486410492068884207D01249206849
:104DD000884203D00D49206888420CD12068806841
:104DE0004607760F062E0CD0206800680121084384
:104DF0002168086005E020680068012108432168F7
:104E000008600020A7E70000002C0140004001409E
:104E100000440140004801400004004030B5044611
:104E20000D4600222946206802F070FC2A492068BD
:104E300088420BD029492068884207D02849206839
:104E4000884203D027492068884201D1012000E030
:104E50000020002814D000BF2068006A22490840C2
:104E600000280CD12068006A89100840002806D16B
:104E70002068406C0121C90388432168486400BF51
:104E800000BF2068006A1849084000280BD120683C
:104E9000006A89100840002805D120680068400891
:104EA00040002168086000BF002D03D101213E2091
:104EB00001550EE0042D03D101213F20015508E0EA
:104EC000082D03D101214020015502E0012141209C
:104ED0000155002030BD0000002C01400040014081
:104EE00000440140004801401111000010B5044683
:104EF000002C01D1012010BDA069002800D000E0E5
:104F000000BFA06F002805D1002174200155204664
:104F100000F02CF82420A0672068006840084000BA
:104F200021680860204603F0D7F8012800D1E2E7A5
:104F3000606A002802D0204603F01CF82068406810
:104F40000121C902884321684860206880680821DF
:104F5000884321688860206800680121084321682F
:104F60000860204603F07EF8C5E7000010B586B063
:104F70000446142101A8FBF78FFA3B4920688842B8
:104F800037D100BF39488069012189030843374977
:104F9000886108468069012189030840009000BFAC
:104FA00000BF00BF31484069C90008432F4948612C
:104FB00008464069012149040840009000BF00BF35
:104FC0000320400201900220029001200390032060
:104FD00004900120059001A90920C006FEF7D4FD28
:104FE000002211461B20FEF779FF1B20FEF764FF0D
:104FF00038E01F492068884234D100BF1B48C0698F
:105000000121490408431949C8610846C0690121C2
:1050100049040840009000BF00BF00BF134840692A
:105020000843124948610846406901214904084083
:10503000009000BF00BF0C200190022002900120D0
:105040000390032004900120059001A90920C006C7
:10505000FEF79AFD002211461C20FEF73FFF1C20A0
:10506000FEF72AFF06B010BD0038014000100240D4
:105070000044004000BFFEE70D490020085E2721E4
:10508000C943884204DD0A480021415EA02907DBAC
:1050900008480088FF21013108430649088006E0DE
:1050A00004480088FF210131884302490880704785
:1050B00070000020AA0000201C480078032803DDAF
:1050C0001A480078642826DB19480078012817D18F
:1050D00018480078002813D117480078002803D01A
:1050E00015480078022820D11448007800281CD1E7
:1050F000012012490870E120C0001149088014E025
:10510000104800880121490208430E490880002008
:105110000B49088009E00B480088012149028843B7
:105120000849088000200649088070477200002066
:10513000AE00002074000020AF0000208A00002094
:10514000F0000020AA0000201D480078002812D09E
:105150001C480078002806D105201B490870012052
:10516000184908700EE01848007800280AD101207C
:105170001649087006E000201349087011490870AC
:105180001249087012480078002812D1114800789E
:10519000002806D105201049087001200D4908702B
:1051A0000CE00D480078002808D101200B49087058
:1051B00004E00020074908700849087070470000A3
:1051C0006B00002076000020A60000207400002064
:1051D0006C00002077000020A7000020890000203C
:1051E00010B5FD48407900284BD0FB488079002855
:1051F00047D0FA480078002843D1F94800880028B1
:105200003FD1F8480078042827D0F64800780528D0
:1052100023D0F4480078012805D10020F249087015
:10522000F24908700CE0EF480078022804D1F048F9
:105230000078EF49087003E0EA480078EC4908700C
:105240000120E64908700420E64908700020E94979
:105250000870012001F088FB12E0E2480078042881
:1052600003D0E048007805280AD1DC4800780028FF
:1052700006D10120D9490870DE49087001F074FB9D
:10528000F8E3DD484079002803D1DB488079002825
:1052900019D0D4480078042803D0D24800780528D3
:1052A00011D1D0480078042803D10520CD490870D9
:1052B00002E00420CB4908700020CE49087001208C
:1052C00001F052FBDCE7CD48007800281FD0CA4827
:1052D0004079002817D1C8488079002813D1C648E2
:1052E000407800280FD1C448807800280BD1C248EC
:1052F000C078002807D1C0480079002803D1BE48F3
:105300000078002802D0002001F02EFBB8E7B54855
:105310000078012873D1B4480078002835D1B84806
:105320000078E12109014843B64909783C225143FC
:105330004018B5490860AE480078AA490870084688
:105340000078032816D1B1480078012810D1B04860
:105350000078002802D1FCF7E1FE0BE0AC480078B1
:10536000022802D102F084F804E001F031FE01E0ED
:1053700003F0CCF9A5480078002803D1A5490870AE
:10538000984908700120994908709B488079002845
:1053900003D191488079002849D09F48407900285E
:1053A00045D18D48807900280DD08C4800780028A0
:1053B00009D101208949087098480078002802D155
:1053C00005209649087095480078002828D1824821
:1053D0008079002805D0022090490870012001F052
:1053E000C3FA8F48007800280AD185480078002841
:1053F0000FDD83480078401E8149087009E066E0AF
:1054000080480078002804DD7E480078401E7D49F1
:10541000087071488079002802D1012001F0A4FAB7
:1054200000207549887132206F4908704FE072483A
:105430004079002803D168484079002847D0764851
:105440008079002843D16448407900280DD0634812
:105450000078002809D10120604908706F48007861
:10546000002802D105206D4908706C48007800289A
:1054700027D159484079002805D002206749087093
:10548000012001F071FA66480078002809D15C48D3
:10549000007817280EDA5A480078401C58490870DE
:1054A00008E0584800783B2804DA56480078401C49
:1054B0005449087048484079002802D1012001F081
:1054C00053FA00204C4948713220474908704A4835
:1054D000807800287ED05048407800287AD1414812
:1054E0000078062876D03E480088002872D13F48D0
:1054F0000078002803D000203C490870BAE0394801
:10550000007801284BD000204549087035480078C4
:1055100037490870012033490870E12109013A48F0
:105520000068FAF7FFFF36490870E12109013648A3
:105530000068FAF7F7FF0C463C212046FAF7F2FF25
:105540003049087001220821104600F0D1FD0122E7
:105550000421032000F0CCFD00220421012000F0F2
:10556000C7FD00220821032000F0C2FD2748007873
:1055700000287CD101228021062000F0B9FD012203
:105580001146072000F0B4FD01222021082000F080
:10559000AFFD01224021082000F0AAFD67E020486D
:1055A0000078401C1E4908700846007802285EDB1F
:1055B00013480078E12109014843124909783C2247
:1055C000514340181049086009480078054908709F
:1055D000012027E051E000001900002075000020A4
:1055E000AA000020B0000020EA0000209C0000205B
:1055F000B1000020B70000200B0000207400002044
:10560000E8000020E9000020E4000020AE000020B7
:10561000AF000020BE000020120000209F000020EC
:10562000B3000020FE490870FE480078032816D118
:10563000FD480078012810D1FC480078002802D1EC
:10564000FCF76CFD0BE0F9480078022802D101F06C
:105650000FFF04E001F0BCFC01E003F057F8F24852
:105660000078002803D1F2490870EE490870322012
:10567000F0490870012001F077F9EB480078002824
:1056800072D1ED48007800280AD0EC480088002844
:1056900006DD0020E9490880012001F065F971E28A
:1056A000E5484078002803D0E548007800280BD072
:1056B000E148C078002803D0E1484078002803D0B2
:1056C000DD480079002850D0D648007801284CD019
:1056D000D4480078062848D0D8480088002844D10B
:1056E000D648008800283BD1D64908700120CE4911
:1056F0000870D1484078002807D00020D2490870AF
:10570000CA490870FCF70AFD1EE0CB48C0780028A3
:1057100008D00020CC4908700220C449087001F06C
:10572000A7FE11E00120C94908700020C049087097
:10573000C549087001F04CFC01220221032000F051
:10574000D7FC0420B94908700020C1490870032023
:10575000B4490870FCF7D8FD032001F005F9AFE368
:10576000002001F001F9ABE314E2B348007800280F
:105770000FD0AC48007806280BD10020B149087042
:10578000A84908700A20B3490870012001F0ECF81C
:1057900096E3B1484078002835D0AF48007800281B
:1057A00031D0A048007800282DD1A44800880028D6
:1057B00029D1AA480078002809D10120A7490870FA
:1057C0001420A74908700020A649087078E3A4486F
:1057D00000780028C3D1A34800780028BFD1994998
:1057E000087001209F49087006208E49087001202A
:1057F0009D4908700A209D49087000F0A3FE012011
:1058000001F0B2F85CE38C484078002828D08C483E
:105810008078002824D183480078062820D1874842
:10582000008800281CD17F480078062814D10A205F
:105830008E4908708C480078401C8B4908700846D7
:105840000078072801DD012008700A2081490870CE
:10585000012001F089F833E3002001F085F82FE3FF
:105860007548807800282AD075484078002826D1CD
:105870006C480078062822D17048008800281ED184
:1058800068480078062816D10A20784908707648BA
:105890000078012805DD74480078401E72490870C0
:1058A00002E00720704908700A206A490870012048
:1058B00001F05AF804E3002001F056F800E35E48D6
:1058C0008079002803D164488079002871D05C4831
:1058D000407900286DD153480078062869D157488F
:1058E0000088002865D15C48807900280DD05B488D
:1058F0000078002809D101205849087058480078DC
:10590000002802D105205649087055480078002823
:10591000A1D151488079002805D002205049087053
:10592000012001F021F83F480078062860D10A20C4
:105930004E4908701E20474908704B480078030004
:1059400002F08FFF084C050F19232D38424C4848B0
:10595000807A012804DD4648807A401E44498872D6
:105960003DE04348C07A012804DD4148C07A401E2A
:105970003F49C87233E03E48007B0A2804DD3C48BA
:10598000007B401E3A49087329E03948407B0128D2
:1059900004DD3748407B401E354948731FE03448DA
:1059A000807B012804DD3248807B401E30498873AB
:1059B00015E024E02E48C07B502804DD2C48C07B35
:1059C000401E2B49C8730AE02948008A012804DDDB
:1059D0002748008A401E2649088200E000BF00BF19
:1059E0001D488079002893D1012000F0BDFF67E2B7
:1059F000194880790028FAD100F0B6FF60E20E481D
:105A00004079002803D1144840790028EFD00C4891
:105A100080790028EBD1034800780628E7D12AE0F6
:105A20009C000020B0000020AE000020AF0000204D
:105A3000BE000020EA0000200B000020AA00002089
:105A400012000020B7000020BD00002086000020CA
:105A5000BC000020B60000201900002090000020AB
:105A60009F00002091000020A0000020A100002045
:105A70000C03002025E2F74800880028B7D1F6483B
:105A8000407900280DD0F5480078002809D1012080
:105A9000F2490870F2480078002802D10520F04948
:105AA0000870EF4800780028A1D1EB484079002821
:105AB00005D00220EA490870012000F055FFE948AE
:105AC000007806285FD10A20E74908701E20E749C0
:105AD0000870E7480078030002F0C3FE084B050F8A
